S00E0000316D6F746F722E73726563B4
S113000086C00000A3C00000A1C000009FC0000083
S11300109DC000009BC0000099C0000097C0000074
S113002095C0000093C0000091C000008FC0000084
S11300308DC000008BC0000089C0000087C0000094
S113004085C0000083C0000081C000007FC00000A4
S11300507DC000007BC0000079C0000077C00000B4
S113006075C0000073C0000071C000006FC00000C4
S11300706DC000006BC0000069C0000067C00000D4
S113008065C0000063C0000061C000005FC00000E4
S1130090CCC100005BC0000059C0000057C0000084
S11300A055C0000053C0000051C000004FC0000004
S11300B04DC000004BC0000049C0000047C0000014
S11300C045C0000043C0000004C200003FC000005F
S11300D03DC000003BC0000039C0000037C0000034
S11300E035C00000DB02F3020403150326033703C3
S11300F0480359036B037D038E039F03B003C103BD
S1130100D203CC02CC02E303F40305041604112445
S11301101FBECFEFD1E2DEBFCDBF00E00CBF12E0C7
S1130120A0E0B2E0E6EDF9E000E00BBF02C007900A
S11301300D92A23DB107D9F722E0A2EDB2E001C0D1
S11301401D92A33EB207E1F71BD243C459CF81E20B
S1130150809320018BE08093210180E890E09093CC
S11301602B0180932A0108954093D7025093D8021B
S11301706093D9027093DA028130910531F4EBE097
S1130180F1E08081806480830895892B29F4EBE079
S1130190F1E080818F7B808308958FEF84B9E0E85C
S11301A0F0E0908191689083E1E8F0E090819D60B7
S11301B09083E0EBF0E0908193689083E1EBF0E0D2
S11301C09081956090838093B3008FEF90E090933B
S11301D0890080938800089587E190E09093CD0092
S11301E08093CC00E9ECF0E0808188698083EAECBC
S11301F0F0E080818660808308958FEF80930A0108
S113020041E050E060E070E081E090E0ADCF8FEF3E
S113021080930A0141E050E060E070E080E090E00B
S1130220A3CF10920A0140E050E0BA0180E090E0D0
S11302309BCF85B1806F85B9089585B1836B85B9EE
S1130240089585B1846785B9089585B1856385B9B5
S1130250089515B808958FEF80930101E2E0F1E06D
S11302609081907E908380930401E5E0F1E08081A9
S11302708E7F80838DB1886A8DB98EB18D758EB96C
S11302800895E2E0F1E080818D7F80838081896040
S113029080830895E2E0F1E080818E7F8083808115
S11302A08A6080830895E2E0F1E08081847F808326
S11302B00895E5E0F1E0808181608083E2E0F1E08F
S11302C080818B7F80838081806180830895E2E0D8
S11302D0F1E0808184608083A5E0B1E08C918E7F21
S11302E08C938081806180830895E5E0F1E08081D2
S11302F08E7F8083E2E0F1E080818B7F8083808148
S11303008F7E8083089573988EB1806A8EB9089524
S113031075988EB188688EB9089571980895E1E052
S1130320F1E08081806A8083E4E0F1E08081826092
S11303308083E2E0F1E080818F758083E5E0F1E085
S113034080818D7F80830895E2E0F1E08081806286
S1130350808380818F778083E5E0F1E08081826013
S113036080830895E2E0F1E0808180688083808169
S11303708F7D8083E5E0F1E0808182608083089551
S1130380E5E0F1E080818D7F8083E2E0F1E080812F
S11303908F75808308958DB184658DB9E4E0F1E0B3
S11303A0808184648083E1E0F1E0808180648083E3
S11303B08EB18B7A8EB9E5E0F1E080818B7B80830E
S11303C080818F7B808308958EB18B7B8EB9749AE4
S11303D0089576988EB184618EB908957498769A4A
S11303E00895E2E0F1E0808180648083E5E0F1E05B
S11303F080818B7B80830895E2E0F1E080818064DA
S11304008083E5E0F1E080818F7B8083808184605C
S113041080830895E2E0F1E080818F7B8083E5E0D2
S1130420F1E080818064808308951F920F920FB65B
S11304300F9211240BB60F928F939F93EF93FF9318
S1130440E8ECF0E0808188231CF4808185FFFACFFA
S11304508091CE0090E09093E2028093E10280913B
S1130460E1029091E2028236910569F48091D4020E
S11304709091D502892B39F481E090E09093D502D4
S11304808093D4021BC08091D4029091D50201972D
S1130490A9F48091E1029091E2029093E0028093AA
S11304A0DF0281E090E09093D3028093D202109215
S11304B0D5021092D40281E08093D602FF91EF918D
S11304C09F918F910F900BBE0F900FBE0F901F90B6
S11304D018951F920F920FB60F9211240F931F932A
S11304E02F933F934F935F936F937F938F939F9338
S11304F0AF93BF934091DB025091DC026091DD0227
S11305007091DE024F5F5F4F6F4F7F4F4093DB026E
S11305105093DC026093DD027093DE028091D70277
S11305209091D802A091D902B091DA02880F991F54
S1130530AA1FBB1F8C019D01000F111F221F331F17
S1130540000F111F221F331F800F911FA21FB31F03
S1130550481759076A077B0711F410920A01BF91E3
S1130560AF919F918F917F916F915F914F913F9147
S11305702F911F910F910F900FBE0F901F90189500
S1130580F8948EE0EFD1E3DD08DE26DE64DEC7DE1C
S113059002DF78948FEF87B98091D6028823E1F344
S11305A08091DF029091E00285319105A8F7FC016A
S11305B0EE58FF4F08C2B5D180E092E0C6D12FEFCC
S11305C08FE794E0215080409040E1F700C00000A4
S11305D040DE27DE68DE89DEA0DED2DEFFDE1ADF43
S11305E01092D602D9CF9DD18BE092E0AED12FEFFD
S11305F08FE794E0215080409040E1F700C0000074
S113060018DE1092D602C8CF8CD183E192E09DD13E
S11306102FEF8FE794E0215080409040E1F700C035
S1130620000013DE1092D602B7CF7BD18DE292E0A8
S11306308CD12FEF8FE794E0215080409040E1F778
S113064000C00000FADD1092D602A6CF6AD182E281
S113065092E07BD12FEF8FE794E0215080409040CF
S1130660E1F700C00000EDDD1092D60295CF59D11C
S11306708CE192E06AD12FEF8FE794E02150804023
S11306809040E1F700C00000C2DD1092D60284CF92
S113069048D187E292E059D12FEF8FE794E02150BF
S11306A080409040E1F700C00000A7DD1092D60220
S11306B073CF35D136D183E392E047D12FEF8FE763
S11306C094E0215080409040E1F700C000001BDE20
S11306D01092D60261CF23D124D18FE392E035D199
S11306E02FEF8FE794E0215080409040E1F700C065
S11306F000000EDE1092D6024FCF13D18CE492E0AC
S113070024D12FEF8FE794E0215080409040E1F70F
S113071000C00000B6DD1092D6023ECF02D18AE5B9
S113072092E013D12FEF8FE794E021508040904066
S1130730E1F700C00000AEDD1092D6022DCFF1D05B
S11307408AE692E002D12FEF8FE794E021508040B7
S11307509040E1F700C00000ACDD1092D6021CCF3F
S1130760E0D088E792E0F1D02FEF8FE794E02150BA
S113077080409040E1F700C00000A9DD1092D6024D
S11307800BCFCFD088E892E0E0D02FEF8FE794E052
S1130790215080409040E1F700C00000D5DD109268
S11307A0D602FACEBED089E992E0CFD02FEF8FE700
S11307B094E0215080409040E1F700C00000D2DD79
S11307C01092D602E9CEADD08BEA92E0BED02FEFE4
S11307D08FE794E0215080409040E1F700C0000092
S11307E000DE1092D602D8CE9CD084EB92E0ADD03D
S11307F02FEF8FE794E0215080409040E1F700C054
S11308000000FADD1092D602C7CE8BD08FEB92E0B7
S11308109CD02FEF8FE794E0215080409040E1F787
S113082000C00000D6DD1092D602B6CE7AD089EC94
S113083092E08BD02FEF8FE794E0215080409040DE
S1130840E1F700C00000C0DD1092D602A5CE429AA6
S113085000C042980895CF93C82F662311F0409AA0
S113086001C0409841983C9A3D9A3E9A3F9A4798D5
S1130870469845984498CC230CF4479AC6FD469A6A
S1130880C5FD459AC4FD449AE2DF479846984598C9
S11308904498C3FD479AC2FD469AC1FD459AC0FDDE
S11308A0449AD5DF449A459A469A479ACF91089537
S11308B0882311F0409A01C04098419A3C983D9891
S11308C03E983F98429A00C0349902C080E001C02B
S11308D080E13599806236998064379980684298BE
S11308E000C0429A00C0349981603599826036997B
S11308F08460379988604298089580E0D9DF88231E
S1130900E4F388E090E00197F1F780E0D1CFCF9352
S1130910C82FF3DF60E08C2F9EDFCF91089581E034
S1130920F6CF82E0F4CFCF93C82FE7DFCA3041F48B
S1130930803410F480E401C080E08058E8DF03C014
S113094061E08C2F88DFCF910895CF93DF93EC0182
S11309508991882321F0E7DF89918111FCCFDF9110
S1130960CF9108951F93CF93DF93182F389A399A14
S11309703A9A3C9A3D9A3E9A3F9AE0E0FAEF3197D0
S1130980F1F7459A449A63DFE0E0FEE43197F1F72A
S11309905EDFC0E0D1E0FE013197F1F758DFFE01E0
S11309A03197F1F7449853DF2197F1F788E2AFDFED
S11309B088E0ADDFB4DF86E0AADF812FA8DFDF9116
S11309C0CF911F910895EE0FFF1F0590F491E02D34
S10909D01994F894FFCF16
S11309D6526561647920796F212100666F727761AF
S11309E67264006261636B77617264007365727628
S11309F66F206C65667400736572766F2072696722
S1130A06687400436C75746368206F70656E004388
S1130A166C7574636820636C6F73650041637475E9
S1130A2661746F722031207570004163747561744E
S1130A366F72203120646F776E0041637475617440
S1130A466F722032207570004163747561746F7221
S1130A56203220646F776E00626F6D6220636C755E
S1130A66746368206F70656E00626F6D6220636CDC
S1130A767574636820636C6F736500777269737449
S1130A8620757000777269737420646F776E0077CF
S1130A9672697374204343570077726973742043F1
S1050AA65700F3
S9030000FC
